{
  "_format": "hh-sol-artifact-1",
  "contractName": "Xtr",
  "sourceName": "contracts/Xtr.sol",
  "abi": [
    {
      "inputs": [
        {
          "internalType": "address",
          "name": "initialOwner",
          "type": "address"
        }
      ],
      "stateMutability": "nonpayable",
      "type": "constructor"
    },
    {
      "inputs": [
        {
          "internalType": "address",
          "name": "spender",
          "type": "address"
        },
        {
          "internalType": "uint256",
          "name": "allowance",
          "type": "uint256"
        },
        {
          "internalType": "uint256",
          "name": "needed",
          "type": "uint256"
        }
      ],
      "name": "ERC20InsufficientAllowance",
      "type": "error"
    },
    {
      "inputs": [
        {
          "internalType": "address",
          "name": "sender",
          "type": "address"
        },
        {
          "internalType": "uint256",
          "name": "balance",
          "type": "uint256"
        },
        {
          "internalType": "uint256",
          "name": "needed",
          "type": "uint256"
        }
      ],
      "name": "ERC20InsufficientBalance",
      "type": "error"
    },
    {
      "inputs": [
        {
          "internalType": "address",
          "name": "approver",
          "type": "address"
        }
      ],
      "name": "ERC20InvalidApprover",
      "type": "error"
    },
    {
      "inputs": [
        {
          "internalType": "address",
          "name": "receiver",
          "type": "address"
        }
      ],
      "name": "ERC20InvalidReceiver",
      "type": "error"
    },
    {
      "inputs": [
        {
          "internalType": "address",
          "name": "sender",
          "type": "address"
        }
      ],
      "name": "ERC20InvalidSender",
      "type": "error"
    },
    {
      "inputs": [
        {
          "internalType": "address",
          "name": "spender",
          "type": "address"
        }
      ],
      "name": "ERC20InvalidSpender",
      "type": "error"
    },
    {
      "inputs": [],
      "name": "EnforcedPause",
      "type": "error"
    },
    {
      "inputs": [],
      "name": "ExpectedPause",
      "type": "error"
    },
    {
      "inputs": [
        {
          "internalType": "address",
          "name": "owner",
          "type": "address"
        }
      ],
      "name": "OwnableInvalidOwner",
      "type": "error"
    },
    {
      "inputs": [
        {
          "internalType": "address",
          "name": "account",
          "type": "address"
        }
      ],
      "name": "OwnableUnauthorizedAccount",
      "type": "error"
    },
    {
      "anonymous": false,
      "inputs": [
        {
          "indexed": true,
          "internalType": "address",
          "name": "owner",
          "type": "address"
        },
        {
          "indexed": true,
          "internalType": "address",
          "name": "spender",
          "type": "address"
        },
        {
          "indexed": false,
          "internalType": "uint256",
          "name": "value",
          "type": "uint256"
        }
      ],
      "name": "Approval",
      "type": "event"
    },
    {
      "anonymous": false,
      "inputs": [
        {
          "indexed": true,
          "internalType": "address",
          "name": "previousOwner",
          "type": "address"
        },
        {
          "indexed": true,
          "internalType": "address",
          "name": "newOwner",
          "type": "address"
        }
      ],
      "name": "OwnershipTransferred",
      "type": "event"
    },
    {
      "anonymous": false,
      "inputs": [
        {
          "indexed": false,
          "internalType": "address",
          "name": "account",
          "type": "address"
        }
      ],
      "name": "Paused",
      "type": "event"
    },
    {
      "anonymous": false,
      "inputs": [
        {
          "indexed": true,
          "internalType": "address",
          "name": "from",
          "type": "address"
        },
        {
          "indexed": true,
          "internalType": "address",
          "name": "to",
          "type": "address"
        },
        {
          "indexed": false,
          "internalType": "uint256",
          "name": "value",
          "type": "uint256"
        }
      ],
      "name": "Transfer",
      "type": "event"
    },
    {
      "anonymous": false,
      "inputs": [
        {
          "indexed": false,
          "internalType": "address",
          "name": "account",
          "type": "address"
        }
      ],
      "name": "Unpaused",
      "type": "event"
    },
    {
      "inputs": [
        {
          "internalType": "address",
          "name": "owner",
          "type": "address"
        },
        {
          "internalType": "address",
          "name": "spender",
          "type": "address"
        }
      ],
      "name": "allowance",
      "outputs": [
        {
          "internalType": "uint256",
          "name": "",
          "type": "uint256"
        }
      ],
      "stateMutability": "view",
      "type": "function"
    },
    {
      "inputs": [
        {
          "internalType": "address",
          "name": "spender",
          "type": "address"
        },
        {
          "internalType": "uint256",
          "name": "value",
          "type": "uint256"
        }
      ],
      "name": "approve",
      "outputs": [
        {
          "internalType": "bool",
          "name": "",
          "type": "bool"
        }
      ],
      "stateMutability": "nonpayable",
      "type": "function"
    },
    {
      "inputs": [
        {
          "internalType": "address",
          "name": "account",
          "type": "address"
        }
      ],
      "name": "balanceOf",
      "outputs": [
        {
          "internalType": "uint256",
          "name": "",
          "type": "uint256"
        }
      ],
      "stateMutability": "view",
      "type": "function"
    },
    {
      "inputs": [
        {
          "internalType": "uint256",
          "name": "value",
          "type": "uint256"
        }
      ],
      "name": "burn",
      "outputs": [],
      "stateMutability": "nonpayable",
      "type": "function"
    },
    {
      "inputs": [
        {
          "internalType": "address",
          "name": "account",
          "type": "address"
        },
        {
          "internalType": "uint256",
          "name": "value",
          "type": "uint256"
        }
      ],
      "name": "burnFrom",
      "outputs": [],
      "stateMutability": "nonpayable",
      "type": "function"
    },
    {
      "inputs": [],
      "name": "decimals",
      "outputs": [
        {
          "internalType": "uint8",
          "name": "",
          "type": "uint8"
        }
      ],
      "stateMutability": "view",
      "type": "function"
    },
    {
      "inputs": [],
      "name": "name",
      "outputs": [
        {
          "internalType": "string",
          "name": "",
          "type": "string"
        }
      ],
      "stateMutability": "view",
      "type": "function"
    },
    {
      "inputs": [],
      "name": "owner",
      "outputs": [
        {
          "internalType": "address",
          "name": "",
          "type": "address"
        }
      ],
      "stateMutability": "view",
      "type": "function"
    },
    {
      "inputs": [],
      "name": "pause",
      "outputs": [],
      "stateMutability": "nonpayable",
      "type": "function"
    },
    {
      "inputs": [],
      "name": "paused",
      "outputs": [
        {
          "internalType": "bool",
          "name": "",
          "type": "bool"
        }
      ],
      "stateMutability": "view",
      "type": "function"
    },
    {
      "inputs": [],
      "name": "renounceOwnership",
      "outputs": [],
      "stateMutability": "nonpayable",
      "type": "function"
    },
    {
      "inputs": [],
      "name": "symbol",
      "outputs": [
        {
          "internalType": "string",
          "name": "",
          "type": "string"
        }
      ],
      "stateMutability": "view",
      "type": "function"
    },
    {
      "inputs": [],
      "name": "totalSupply",
      "outputs": [
        {
          "internalType": "uint256",
          "name": "",
          "type": "uint256"
        }
      ],
      "stateMutability": "view",
      "type": "function"
    },
    {
      "inputs": [
        {
          "internalType": "address",
          "name": "to",
          "type": "address"
        },
        {
          "internalType": "uint256",
          "name": "value",
          "type": "uint256"
        }
      ],
      "name": "transfer",
      "outputs": [
        {
          "internalType": "bool",
          "name": "",
          "type": "bool"
        }
      ],
      "stateMutability": "nonpayable",
      "type": "function"
    },
    {
      "inputs": [
        {
          "internalType": "address",
          "name": "from",
          "type": "address"
        },
        {
          "internalType": "address",
          "name": "to",
          "type": "address"
        },
        {
          "internalType": "uint256",
          "name": "value",
          "type": "uint256"
        }
      ],
      "name": "transferFrom",
      "outputs": [
        {
          "internalType": "bool",
          "name": "",
          "type": "bool"
        }
      ],
      "stateMutability": "nonpayable",
      "type": "function"
    },
    {
      "inputs": [
        {
          "internalType": "address",
          "name": "newOwner",
          "type": "address"
        }
      ],
      "name": "transferOwnership",
      "outputs": [],
      "stateMutability": "nonpayable",
      "type": "function"
    },
    {
      "inputs": [],
      "name": "unpause",
      "outputs": [],
      "stateMutability": "nonpayable",
      "type": "function"
    }
  ],
  "bytecode": "0x60806040523480156200001157600080fd5b506040516200112438038062001124833981016040819052620000349162000398565b6040805180820182526003808252622c3a3960e91b602080840182905284518086019095528285528401528392906200006e838262000470565b5060046200007d828262000470565b5050506001600160a01b038116620000b057604051631e4fbdf760e01b8152600060048201526024015b60405180910390fd5b620000bb8162000104565b506005805460ff60a01b19169055620000d48162000156565b620000fd33620000e76012600a62000651565b620000f7906305f5e10062000662565b6200019a565b5062000692565b600580546001600160a01b038381166001600160a01b0319831681179093556040519116919082907f8be0079c531659141344cd1fd0a4f28419497f9722a3daafe3b4186f6b6457e090600090a35050565b62000160620001d8565b6001600160a01b0381166200018c57604051631e4fbdf760e01b815260006004820152602401620000a7565b620001978162000104565b50565b6001600160a01b038216620001c65760405163ec442f0560e01b815260006004820152602401620000a7565b620001d46000838362000209565b5050565b6005546001600160a01b03163314620002075760405163118cdaa760e01b8152336004820152602401620000a7565b565b620002168383836200021b565b505050565b6200022562000232565b6200021683838362000265565b62000246600554600160a01b900460ff1690565b15620002075760405163d93c066560e01b815260040160405180910390fd5b6001600160a01b038316620002945780600260008282546200028891906200067c565b90915550620003089050565b6001600160a01b03831660009081526020819052604090205481811015620002e95760405163391434e360e21b81526001600160a01b03851660048201526024810182905260448101839052606401620000a7565b6001600160a01b03841660009081526020819052604090209082900390555b6001600160a01b038216620003265760028054829003905562000345565b6001600160a01b03821660009081526020819052604090208054820190555b816001600160a01b0316836001600160a01b03167fddf252ad1be2c89b69c2b068fc378daa952ba7f163c4a11628f55a4df523b3ef836040516200038b91815260200190565b60405180910390a3505050565b600060208284031215620003ab57600080fd5b81516001600160a01b0381168114620003c357600080fd5b9392505050565b634e487b7160e01b600052604160045260246000fd5b600181811c90821680620003f557607f821691505b6020821081036200041657634e487b7160e01b600052602260045260246000fd5b50919050565b601f82111562000216576000816000526020600020601f850160051c81016020861015620004475750805b601f850160051c820191505b81811015620004685782815560010162000453565b505050505050565b81516001600160401b038111156200048c576200048c620003ca565b620004a4816200049d8454620003e0565b846200041c565b602080601f831160018114620004dc5760008415620004c35750858301515b600019600386901b1c1916600185901b17855562000468565b600085815260208120601f198616915b828110156200050d57888601518255948401946001909101908401620004ec565b50858210156200052c5787850151600019600388901b60f8161c191681555b5050505050600190811b01905550565b634e487b7160e01b600052601160045260246000fd5b600181815b80851115620005935781600019048211156200057757620005776200053c565b808516156200058557918102915b93841c939080029062000557565b509250929050565b600082620005ac575060016200064b565b81620005bb575060006200064b565b8160018114620005d45760028114620005df57620005ff565b60019150506200064b565b60ff841115620005f357620005f36200053c565b50506001821b6200064b565b5060208310610133831016604e8410600b841016171562000624575081810a6200064b565b62000630838362000552565b80600019048211156200064757620006476200053c565b0290505b92915050565b6000620003c360ff8416836200059b565b80820281158282048414176200064b576200064b6200053c565b808201808211156200064b576200064b6200053c565b610a8280620006a26000396000f3fe608060405234801561001057600080fd5b506004361061010b5760003560e01c806370a08231116100a25780638da5cb5b116100715780638da5cb5b1461020057806395d89b411461021b578063a9059cbb14610223578063dd62ed3e14610236578063f2fde38b1461026f57600080fd5b806370a08231146101b4578063715018a6146101dd57806379cc6790146101e55780638456cb59146101f857600080fd5b8063313ce567116100de578063313ce567146101765780633f4ba83a1461018557806342966c681461018f5780635c975abb146101a257600080fd5b806306fdde0314610110578063095ea7b31461012e57806318160ddd1461015157806323b872dd14610163575b600080fd5b610118610282565b60405161012591906108b2565b60405180910390f35b61014161013c36600461091d565b610314565b6040519015158152602001610125565b6002545b604051908152602001610125565b610141610171366004610947565b61032e565b60405160128152602001610125565b61018d610352565b005b61018d61019d366004610983565b610364565b600554600160a01b900460ff16610141565b6101556101c236600461099c565b6001600160a01b031660009081526020819052604090205490565b61018d610371565b61018d6101f336600461091d565b610383565b61018d61039c565b6005546040516001600160a01b039091168152602001610125565b6101186103ac565b61014161023136600461091d565b6103bb565b6101556102443660046109be565b6001600160a01b03918216600090815260016020908152604080832093909416825291909152205490565b61018d61027d36600461099c565b6103c9565b606060038054610291906109f1565b80601f01602080910402602001604051908101604052809291908181526020018280546102bd906109f1565b801561030a5780601f106102df5761010080835404028352916020019161030a565b820191906000526020600020905b8154815290600101906020018083116102ed57829003601f168201915b5050505050905090565b600033610322818585610409565b60019150505b92915050565b60003361033c85828561041b565b610347858585610499565b506001949350505050565b61035a6104f8565b610362610525565b565b61036e338261057a565b50565b6103796104f8565b61036260006105b0565b61038e82338361041b565b610398828261057a565b5050565b6103a46104f8565b610362610602565b606060048054610291906109f1565b600033610322818585610499565b6103d16104f8565b6001600160a01b03811661040057604051631e4fbdf760e01b8152600060048201526024015b60405180910390fd5b61036e816105b0565b6104168383836001610645565b505050565b6001600160a01b038381166000908152600160209081526040808320938616835292905220546000198114610493578181101561048457604051637dc7a0d960e11b81526001600160a01b038416600482015260248101829052604481018390526064016103f7565b61049384848484036000610645565b50505050565b6001600160a01b0383166104c357604051634b637e8f60e11b8152600060048201526024016103f7565b6001600160a01b0382166104ed5760405163ec442f0560e01b8152600060048201526024016103f7565b61041683838361071a565b6005546001600160a01b031633146103625760405163118cdaa760e01b81523360048201526024016103f7565b61052d610725565b6005805460ff60a01b191690557f5db9ee0a495bf2e6ff9c91a7834c1ba4fdd244a5e8aa4e537bd38aeae4b073aa335b6040516001600160a01b03909116815260200160405180910390a1565b6001600160a01b0382166105a457604051634b637e8f60e11b8152600060048201526024016103f7565b6103988260008361071a565b600580546001600160a01b038381166001600160a01b0319831681179093556040519116919082907f8be0079c531659141344cd1fd0a4f28419497f9722a3daafe3b4186f6b6457e090600090a35050565b61060a61074f565b6005805460ff60a01b1916600160a01b1790557f62e78cea01bee320cd4e420270b5ea74000d11b0c9f74754ebdbfc544b05a25861055d3390565b6001600160a01b03841661066f5760405163e602df0560e01b8152600060048201526024016103f7565b6001600160a01b03831661069957604051634a1406b160e11b8152600060048201526024016103f7565b6001600160a01b038085166000908152600160209081526040808320938716835292905220829055801561049357826001600160a01b0316846001600160a01b03167f8c5be1e5ebec7d5bd14f71427d1e84f3dd0314c0f7b2291e5b200ac8c7c3b9258460405161070c91815260200190565b60405180910390a350505050565b61041683838361077a565b600554600160a01b900460ff1661036257604051638dfc202b60e01b815260040160405180910390fd5b600554600160a01b900460ff16156103625760405163d93c066560e01b815260040160405180910390fd5b61078261074f565b6104168383836001600160a01b0383166107b35780600260008282546107a89190610a2b565b909155506108259050565b6001600160a01b038316600090815260208190526040902054818110156108065760405163391434e360e21b81526001600160a01b038516600482015260248101829052604481018390526064016103f7565b6001600160a01b03841660009081526020819052604090209082900390555b6001600160a01b03821661084157600280548290039055610860565b6001600160a01b03821660009081526020819052604090208054820190555b816001600160a01b0316836001600160a01b03167fddf252ad1be2c89b69c2b068fc378daa952ba7f163c4a11628f55a4df523b3ef836040516108a591815260200190565b60405180910390a3505050565b60006020808352835180602085015260005b818110156108e0578581018301518582016040015282016108c4565b506000604082860101526040601f19601f8301168501019250505092915050565b80356001600160a01b038116811461091857600080fd5b919050565b6000806040838503121561093057600080fd5b61093983610901565b946020939093013593505050565b60008060006060848603121561095c57600080fd5b61096584610901565b925061097360208501610901565b9150604084013590509250925092565b60006020828403121561099557600080fd5b5035919050565b6000602082840312156109ae57600080fd5b6109b782610901565b9392505050565b600080604083850312156109d157600080fd5b6109da83610901565b91506109e860208401610901565b90509250929050565b600181811c90821680610a0557607f821691505b602082108103610a2557634e487b7160e01b600052602260045260246000fd5b50919050565b8082018082111561032857634e487b7160e01b600052601160045260246000fdfea26469706673582212206aa198c55a741b4bffeb27a6b6e3b218682f5ccab9420dbc541d2b0e65996d2a64736f6c63430008180033",
  "linkReferences": {},
  "deployedLinkReferences": {}
}