{
    "_format": "hh-sol-artifact-1",
    "contractName": "ClaimToken",
    "sourceName": "contracts/ClaimToken.sol",
    "abi": [
        {
            "inputs": [
                {
                    "internalType": "address",
                    "name": "_xtrTokenAddress",
                    "type": "address"
                }
            ],
            "stateMutability": "nonpayable",
            "type": "constructor"
        },
        {
            "inputs": [],
            "name": "MAX_CLAIM_AMOUNT",
            "outputs": [
                {
                    "internalType": "uint256",
                    "name": "",
                    "type": "uint256"
                }
            ],
            "stateMutability": "view",
            "type": "function"
        },
        {
            "inputs": [],
            "name": "claimXTR",
            "outputs": [],
            "stateMutability": "nonpayable",
            "type": "function"
        },
        {
            "inputs": [
                {
                    "internalType": "uint256",
                    "name": "",
                    "type": "uint256"
                }
            ],
            "name": "claimers",
            "outputs": [
                {
                    "internalType": "address",
                    "name": "",
                    "type": "address"
                }
            ],
            "stateMutability": "view",
            "type": "function"
        },
        {
            "inputs": [
                {
                    "internalType": "address",
                    "name": "",
                    "type": "address"
                }
            ],
            "name": "hasClaimed",
            "outputs": [
                {
                    "internalType": "bool",
                    "name": "",
                    "type": "bool"
                }
            ],
            "stateMutability": "view",
            "type": "function"
        },
        {
            "inputs": [],
            "name": "isOwner",
            "outputs": [
                {
                    "internalType": "bool",
                    "name": "",
                    "type": "bool"
                }
            ],
            "stateMutability": "view",
            "type": "function"
        },
        {
            "inputs": [
                {
                    "internalType": "uint256",
                    "name": "_amount",
                    "type": "uint256"
                }
            ],
            "name": "transferXTRContract",
            "outputs": [],
            "stateMutability": "nonpayable",
            "type": "function"
        },
        {
            "inputs": [],
            "name": "xtrToken",
            "outputs": [
                {
                    "internalType": "contract IERC20",
                    "name": "",
                    "type": "address"
                }
            ],
            "stateMutability": "view",
            "type": "function"
        }
    ],
    "bytecode": "0x608060405234801561001057600080fd5b5060405161064838038061064883398101604081905261002f91610054565b600080546001600160a01b0319166001600160a01b0392909216919091179055610084565b60006020828403121561006657600080fd5b81516001600160a01b038116811461007d57600080fd5b9392505050565b6105b5806100936000396000f3fe608060405234801561001057600080fd5b506004361061007d5760003560e01c806399ae559d1161005b57806399ae559d146100d1578063b8ff804a146100fc578063be1667c61461010f578063e362b4f71461012257600080fd5b806373b2e80e146100825780638f224800146100ba5780638f32d59b146100c4575b600080fd5b6100a56100903660046104fb565b60016020526000908152604090205460ff1681565b60405190151581526020015b60405180910390f35b6100c2610140565b005b6003546100a59060ff1681565b6100e46100df36600461052b565b610360565b6040516001600160a01b0390911681526020016100b1565b6000546100e4906001600160a01b031681565b6100c261011d36600461052b565b61038a565b610132683635c9adc5dea0000081565b6040519081526020016100b1565b3360009081526001602052604090205460ff16156101b05760405162461bcd60e51b815260206004820152602260248201527f596f75206861766520616c726561647920636c61696d65642058545220546f6b60448201526132b760f11b60648201526084015b60405180910390fd5b6000546040516370a0823160e01b8152306004820152683635c9adc5dea00000916001600160a01b0316906370a0823190602401602060405180830381865afa158015610201573d6000803e3d6000fd5b505050506040513d601f19601f820116820180604052508101906102259190610544565b10156102875760405162461bcd60e51b815260206004820152602b60248201527f496e73756666696369656e742058545220746f6b656e7320617661696c61626c60448201526a6520666f7220636c61696d60a81b60648201526084016101a7565b336000818152600160208190526040808320805460ff19168317905560028054928301815583527f405787fa12a823e0f2b7631cc41b3ba8828b3321ca811111fa75cd3aa3bb5ace90910180546001600160a01b031916841790559054905163a9059cbb60e01b81526004810192909252683635c9adc5dea0000060248301526001600160a01b03169063a9059cbb906044016020604051808303816000875af1158015610339573d6000803e3d6000fd5b505050506040513d601f19601f8201168201806040525081019061035d919061055d565b50565b6002818154811061037057600080fd5b6000918252602090912001546001600160a01b0316905081565b60035460ff16156103f25760405162461bcd60e51b815260206004820152602c60248201527f4f6e6c79206f776e657220616464726573732063616e20706572666f726d207460448201526b3434b990333ab731ba34b7b760a11b60648201526084016101a7565b600081116104425760405162461bcd60e51b815260206004820152601f60248201527f5472616e73666572206d7573742062652067726561746572207468616e20300060448201526064016101a7565b6000546040516323b872dd60e01b8152336004820152306024820152604481018390526001600160a01b03909116906323b872dd906064016020604051808303816000875af1158015610499573d6000803e3d6000fd5b505050506040513d601f19601f820116820180604052508101906104bd919061055d565b61035d5760405162461bcd60e51b815260206004820152600f60248201526e151c985b9cd9995c8819985a5b1959608a1b60448201526064016101a7565b60006020828403121561050d57600080fd5b81356001600160a01b038116811461052457600080fd5b9392505050565b60006020828403121561053d57600080fd5b5035919050565b60006020828403121561055657600080fd5b5051919050565b60006020828403121561056f57600080fd5b8151801515811461052457600080fdfea2646970667358221220bae1fe27a5560b410c52c36012653cf18e75aaaba3cb57259412fb04874d661a64736f6c63430008180033",
    "linkReferences": {},
    "deployedLinkReferences": {}
}