{
  "_format": "hh-sol-artifact-1",
  "contractName": "Crowdfunding",
  "sourceName": "contracts/Crowdfunding.sol",
  "abi": [
    {
      "inputs": [
        {
          "internalType": "address",
          "name": "_tokenAddress",
          "type": "address"
        }
      ],
      "stateMutability": "nonpayable",
      "type": "constructor"
    },
    {
      "anonymous": false,
      "inputs": [],
      "name": "CrowdfundingClosed",
      "type": "event"
    },
    {
      "anonymous": false,
      "inputs": [
        {
          "indexed": true,
          "internalType": "address",
          "name": "user",
          "type": "address"
        },
        {
          "indexed": false,
          "internalType": "uint256",
          "name": "amount",
          "type": "uint256"
        }
      ],
      "name": "Funded",
      "type": "event"
    },
    {
      "anonymous": false,
      "inputs": [],
      "name": "GoalReached",
      "type": "event"
    },
    {
      "anonymous": false,
      "inputs": [
        {
          "indexed": true,
          "internalType": "address",
          "name": "user",
          "type": "address"
        },
        {
          "indexed": false,
          "internalType": "uint256",
          "name": "amount",
          "type": "uint256"
        }
      ],
      "name": "Refunded",
      "type": "event"
    },
    {
      "inputs": [],
      "name": "MAX_CONTRIBUTION",
      "outputs": [
        {
          "internalType": "uint256",
          "name": "",
          "type": "uint256"
        }
      ],
      "stateMutability": "view",
      "type": "function"
    },
    {
      "inputs": [],
      "name": "closeCrowdfunding",
      "outputs": [],
      "stateMutability": "nonpayable",
      "type": "function"
    },
    {
      "inputs": [
        {
          "internalType": "address",
          "name": "",
          "type": "address"
        }
      ],
      "name": "contributions",
      "outputs": [
        {
          "internalType": "uint256",
          "name": "",
          "type": "uint256"
        }
      ],
      "stateMutability": "view",
      "type": "function"
    },
    {
      "inputs": [
        {
          "internalType": "uint256",
          "name": "",
          "type": "uint256"
        }
      ],
      "name": "contributor",
      "outputs": [
        {
          "internalType": "address",
          "name": "",
          "type": "address"
        }
      ],
      "stateMutability": "view",
      "type": "function"
    },
    {
      "inputs": [
        {
          "internalType": "uint256",
          "name": "amount",
          "type": "uint256"
        }
      ],
      "name": "fund",
      "outputs": [],
      "stateMutability": "nonpayable",
      "type": "function"
    },
    {
      "inputs": [],
      "name": "getContributors",
      "outputs": [
        {
          "internalType": "address[]",
          "name": "",
          "type": "address[]"
        }
      ],
      "stateMutability": "view",
      "type": "function"
    },
    {
      "inputs": [],
      "name": "getDetails",
      "outputs": [
        {
          "internalType": "string",
          "name": "",
          "type": "string"
        },
        {
          "internalType": "uint256",
          "name": "",
          "type": "uint256"
        },
        {
          "internalType": "uint256",
          "name": "",
          "type": "uint256"
        },
        {
          "internalType": "bool",
          "name": "",
          "type": "bool"
        },
        {
          "internalType": "bool",
          "name": "",
          "type": "bool"
        }
      ],
      "stateMutability": "view",
      "type": "function"
    },
    {
      "inputs": [],
      "name": "goal",
      "outputs": [
        {
          "internalType": "uint256",
          "name": "",
          "type": "uint256"
        }
      ],
      "stateMutability": "view",
      "type": "function"
    },
    {
      "inputs": [],
      "name": "isClosed",
      "outputs": [
        {
          "internalType": "bool",
          "name": "",
          "type": "bool"
        }
      ],
      "stateMutability": "view",
      "type": "function"
    },
    {
      "inputs": [],
      "name": "isGoalReached",
      "outputs": [
        {
          "internalType": "bool",
          "name": "",
          "type": "bool"
        }
      ],
      "stateMutability": "view",
      "type": "function"
    },
    {
      "inputs": [],
      "name": "name",
      "outputs": [
        {
          "internalType": "string",
          "name": "",
          "type": "string"
        }
      ],
      "stateMutability": "view",
      "type": "function"
    },
    {
      "inputs": [],
      "name": "refund",
      "outputs": [],
      "stateMutability": "nonpayable",
      "type": "function"
    },
    {
      "inputs": [],
      "name": "totalFunds",
      "outputs": [
        {
          "internalType": "uint256",
          "name": "",
          "type": "uint256"
        }
      ],
      "stateMutability": "view",
      "type": "function"
    }
  ],
  "bytecode": "0x60c0604052600a608090815269416c6f612047616d657360b01b60a0526000906200002b908262000137565b5069054b40b1f852bda000006001553480156200004757600080fd5b5060405162000da838038062000da88339810160408190526200006a9162000203565b600280546001600160a01b0319166001600160a01b039290921691909117905562000235565b634e487b7160e01b600052604160045260246000fd5b600181811c90821680620000bb57607f821691505b602082108103620000dc57634e487b7160e01b600052602260045260246000fd5b50919050565b601f82111562000132576000816000526020600020601f850160051c810160208610156200010d5750805b601f850160051c820191505b818110156200012e5782815560010162000119565b5050505b505050565b81516001600160401b0381111562000153576200015362000090565b6200016b81620001648454620000a6565b84620000e2565b602080601f831160018114620001a357600084156200018a5750858301515b600019600386901b1c1916600185901b1785556200012e565b600085815260208120601f198616915b82811015620001d457888601518255948401946001909101908401620001b3565b5085821015620001f35787850151600019600388901b60f8161c191681555b5050505050600190811b01905550565b6000602082840312156200021657600080fd5b81516001600160a01b03811681146200022e57600080fd5b9392505050565b610b6380620002456000396000f3fe608060405234801561001057600080fd5b50600436106100cf5760003560e01c8063968ed6001161008c578063ca1d209d11610066578063ca1d209d146101ae578063d3eb6f61146101c1578063fa013ad8146101ce578063fbbf93a0146101d657600080fd5b8063968ed6001461016e578063af157c1914610177578063c2b6b58c1461018c57600080fd5b806306fdde03146100d457806340193883146100f257806342e94c9014610109578063590e1ae31461012957806365158b3b1461013357806394d95f8f1461015e575b600080fd5b6100dc6101ef565b6040516100e99190610964565b60405180910390f35b6100fb60015481565b6040519081526020016100e9565b6100fb61011736600461097e565b60056020526000908152604090205481565b61013161027d565b005b6101466101413660046109a7565b61042d565b6040516001600160a01b0390911681526020016100e9565b6100fb681043561a882930000081565b6100fb60035481565b61017f610457565b6040516100e991906109c0565b60045461019e90610100900460ff1681565b60405190151581526020016100e9565b6101316101bc3660046109a7565b6104b9565b60045461019e9060ff1681565b6101316107ef565b6101de610851565b6040516100e9959493929190610a0d565b600080546101fc90610a46565b80601f016020809104026020016040519081016040528092919081815260200182805461022890610a46565b80156102755780601f1061024a57610100808354040283529160200191610275565b820191906000526020600020905b81548152906001019060200180831161025857829003601f168201915b505050505081565b600454610100900460ff16156102ae5760405162461bcd60e51b81526004016102a590610a80565b60405180910390fd5b60045460ff16156102f95760405162461bcd60e51b815260206004820152601560248201527411dbd85b081a185cc81899595b881c995858da1959605a1b60448201526064016102a5565b33600090815260056020526040902054806103565760405162461bcd60e51b815260206004820152601960248201527f4e6f20636f6e747269627574696f6e20746f20726566756e640000000000000060448201526064016102a5565b3360009081526005602052604081208190556003805483929061037a908490610ac6565b909155505060025460405163a9059cbb60e01b8152336004820152602481018390526001600160a01b039091169063a9059cbb906044016020604051808303816000875af11580156103d0573d6000803e3d6000fd5b505050506040513d601f19601f820116820180604052508101906103f49190610adf565b5060405181815233907fd7dee2702d63ad89917b6a4da9981c90c4d24f8c2bdfd64c604ecae57d8d06519060200160405180910390a250565b6006818154811061043d57600080fd5b6000918252602090912001546001600160a01b0316905081565b606060068054806020026020016040519081016040528092919081815260200182805480156104af57602002820191906000526020600020905b81546001600160a01b03168152600190910190602001808311610491575b5050505050905090565b600454610100900460ff16156104e15760405162461bcd60e51b81526004016102a590610a80565b600081116105315760405162461bcd60e51b815260206004820152601d60248201527f416d6f756e74206d7573742062652067726561746572207468616e203000000060448201526064016102a5565b6002546040516370a0823160e01b815233600482015282916001600160a01b0316906370a0823190602401602060405180830381865afa158015610579573d6000803e3d6000fd5b505050506040513d601f19601f8201168201806040525081019061059d9190610b01565b10156105eb5760405162461bcd60e51b815260206004820152601a60248201527f496e73756666696369656e7420746f6b656e2062616c616e636500000000000060448201526064016102a5565b681043561a88293000008111156106525760405162461bcd60e51b815260206004820152602560248201527f436f6e7472696275746f72206578636565647320746865206d6178696d756d206044820152641b1a5b5a5d60da1b60648201526084016102a5565b3360009081526005602052604081205490036106ab57600680546001810182556000919091527ff652222313e28459528d920b65115c16c04f3efc82aaedc97be59f3f377c0d3f0180546001600160a01b031916331790555b33600090815260056020526040812080548392906106ca908490610b1a565b9250508190555080600360008282546106e39190610b1a565b90915550506002546040516323b872dd60e01b8152336004820152306024820152604481018390526001600160a01b03909116906323b872dd906064016020604051808303816000875af115801561073f573d6000803e3d6000fd5b505050506040513d601f19601f820116820180604052508101906107639190610adf565b5060405181815233907f5af8184bef8e4b45eb9f6ed7734d04da38ced226495548f46e0c8ff8d7d9a5249060200160405180910390a2600154600354101580156107b0575060045460ff16155b156107ec576004805460ff191660011790556040517ff30bb8af8a065d12f4e39fe65ccc82ca742ae3efb1f64e78630fe4796d92c5fe90600090a15b50565b600454610100900460ff16156108175760405162461bcd60e51b81526004016102a590610a80565b6004805461ff0019166101001790556040517f8b509b2a65011de6c4d09c12fda946ecbd2f0afc0e0d4dc7690d55e87477bbfe90600090a1565b60606000806000806000600154600354600460009054906101000a900460ff16600460019054906101000a900460ff1684805461088d90610a46565b80601f01602080910402602001604051908101604052809291908181526020018280546108b990610a46565b80156109065780601f106108db57610100808354040283529160200191610906565b820191906000526020600020905b8154815290600101906020018083116108e957829003601f168201915b50505050509450945094509450945094509091929394565b6000815180845260005b8181101561094457602081850181015186830182015201610928565b506000602082860101526020601f19601f83011685010191505092915050565b602081526000610977602083018461091e565b9392505050565b60006020828403121561099057600080fd5b81356001600160a01b038116811461097757600080fd5b6000602082840312156109b957600080fd5b5035919050565b6020808252825182820181905260009190848201906040850190845b81811015610a015783516001600160a01b0316835292840192918401916001016109dc565b50909695505050505050565b60a081526000610a2060a083018861091e565b602083019690965250604081019390935290151560608301521515608090910152919050565b600181811c90821680610a5a57607f821691505b602082108103610a7a57634e487b7160e01b600052602260045260246000fd5b50919050565b60208082526016908201527510dc9bddd9199d5b991a5b99c81a5cc818db1bdcd95960521b604082015260600190565b634e487b7160e01b600052601160045260246000fd5b81810381811115610ad957610ad9610ab0565b92915050565b600060208284031215610af157600080fd5b8151801515811461097757600080fd5b600060208284031215610b1357600080fd5b5051919050565b80820180821115610ad957610ad9610ab056fea264697066735822122021f8d548b7cddf93efc7d9dc9f32041562990b26306f516e08c949de7579f08f64736f6c63430008180033",
  "linkReferences": {},
  "deployedLinkReferences": {}
}