{
  "_format": "hh-sol-artifact-1",
  "contractName": "Crowdfunding",
  "sourceName": "contracts/Crowdfunding.sol",
  "abi": [
    {
      "inputs": [],
      "stateMutability": "nonpayable",
      "type": "constructor"
    },
    {
      "anonymous": false,
      "inputs": [],
      "name": "CrowdfundingClosed",
      "type": "event"
    },
    {
      "anonymous": false,
      "inputs": [
        {
          "indexed": true,
          "internalType": "address",
          "name": "user",
          "type": "address"
        },
        {
          "indexed": false,
          "internalType": "uint256",
          "name": "amount",
          "type": "uint256"
        }
      ],
      "name": "Funded",
      "type": "event"
    },
    {
      "anonymous": false,
      "inputs": [],
      "name": "GoalReached",
      "type": "event"
    },
    {
      "anonymous": false,
      "inputs": [
        {
          "indexed": true,
          "internalType": "address",
          "name": "user",
          "type": "address"
        },
        {
          "indexed": false,
          "internalType": "uint256",
          "name": "amount",
          "type": "uint256"
        }
      ],
      "name": "Refunded",
      "type": "event"
    },
    {
      "inputs": [],
      "name": "REQUIRED_TOKEN_ADDRESS",
      "outputs": [
        {
          "internalType": "address",
          "name": "",
          "type": "address"
        }
      ],
      "stateMutability": "view",
      "type": "function"
    },
    {
      "inputs": [],
      "name": "closeCrowdfunding",
      "outputs": [],
      "stateMutability": "nonpayable",
      "type": "function"
    },
    {
      "inputs": [
        {
          "internalType": "address",
          "name": "",
          "type": "address"
        }
      ],
      "name": "contributions",
      "outputs": [
        {
          "internalType": "uint256",
          "name": "",
          "type": "uint256"
        }
      ],
      "stateMutability": "view",
      "type": "function"
    },
    {
      "inputs": [],
      "name": "description",
      "outputs": [
        {
          "internalType": "string",
          "name": "",
          "type": "string"
        }
      ],
      "stateMutability": "view",
      "type": "function"
    },
    {
      "inputs": [
        {
          "internalType": "uint256",
          "name": "amount",
          "type": "uint256"
        }
      ],
      "name": "fund",
      "outputs": [],
      "stateMutability": "nonpayable",
      "type": "function"
    },
    {
      "inputs": [],
      "name": "getDetails",
      "outputs": [
        {
          "internalType": "string",
          "name": "",
          "type": "string"
        },
        {
          "internalType": "string",
          "name": "",
          "type": "string"
        },
        {
          "internalType": "uint256",
          "name": "",
          "type": "uint256"
        },
        {
          "internalType": "uint256",
          "name": "",
          "type": "uint256"
        },
        {
          "internalType": "bool",
          "name": "",
          "type": "bool"
        },
        {
          "internalType": "bool",
          "name": "",
          "type": "bool"
        }
      ],
      "stateMutability": "view",
      "type": "function"
    },
    {
      "inputs": [],
      "name": "goal",
      "outputs": [
        {
          "internalType": "uint256",
          "name": "",
          "type": "uint256"
        }
      ],
      "stateMutability": "view",
      "type": "function"
    },
    {
      "inputs": [],
      "name": "isClosed",
      "outputs": [
        {
          "internalType": "bool",
          "name": "",
          "type": "bool"
        }
      ],
      "stateMutability": "view",
      "type": "function"
    },
    {
      "inputs": [],
      "name": "isGoalReached",
      "outputs": [
        {
          "internalType": "bool",
          "name": "",
          "type": "bool"
        }
      ],
      "stateMutability": "view",
      "type": "function"
    },
    {
      "inputs": [],
      "name": "name",
      "outputs": [
        {
          "internalType": "string",
          "name": "",
          "type": "string"
        }
      ],
      "stateMutability": "view",
      "type": "function"
    },
    {
      "inputs": [],
      "name": "refund",
      "outputs": [],
      "stateMutability": "nonpayable",
      "type": "function"
    },
    {
      "inputs": [],
      "name": "totalFunds",
      "outputs": [
        {
          "internalType": "uint256",
          "name": "",
          "type": "uint256"
        }
      ],
      "stateMutability": "view",
      "type": "function"
    }
  ],
  "bytecode": "0x60c0604052600a608090815269416c6f612047616d657360b01b60a0526000906200002b90826200014d565b5060408051808201909152600b81526a4c6f72656d20697073756d60a81b60208201526001906200005d90826200014d565b5069054b40b1f852bda000006002553480156200007957600080fd5b50600380546001600160a01b03191673b2c86ccfbfbe235657a5d2556f2b3b1156a2328317905562000219565b634e487b7160e01b600052604160045260246000fd5b600181811c90821680620000d157607f821691505b602082108103620000f257634e487b7160e01b600052602260045260246000fd5b50919050565b601f82111562000148576000816000526020600020601f850160051c81016020861015620001235750805b601f850160051c820191505b8181101562000144578281556001016200012f565b5050505b505050565b81516001600160401b03811115620001695762000169620000a6565b62000181816200017a8454620000bc565b84620000f8565b602080601f831160018114620001b95760008415620001a05750858301515b600019600386901b1c1916600185901b17855562000144565b600085815260208120601f198616915b82811015620001ea57888601518255948401946001909101908401620001c9565b5085821015620002095787850151600019600388901b60f8161c191681555b5050505050600190811b01905550565b610b0e80620002296000396000f3fe608060405234801561001057600080fd5b50600436106100b45760003560e01c8063a2adef2111610071578063a2adef2114610129578063c2b6b58c1461015c578063ca1d209d1461017e578063d3eb6f6114610191578063fa013ad81461019e578063fbbf93a0146101a657600080fd5b806306fdde03146100b957806340193883146100d757806342e94c90146100ee578063590e1ae31461010e5780637284e41614610118578063968ed60014610120575b600080fd5b6100c16101c0565b6040516100ce9190610948565b60405180910390f35b6100e060025481565b6040519081526020016100ce565b6100e06100fc366004610962565b60066020526000908152604090205481565b61011661024e565b005b6100c16103fe565b6100e060045481565b61014473b2c86ccfbfbe235657a5d2556f2b3b1156a2328381565b6040516001600160a01b0390911681526020016100ce565b60055461016e90610100900460ff1681565b60405190151581526020016100ce565b61011661018c36600461098b565b61040b565b60055461016e9060ff1681565b610116610741565b6101ae6107a3565b6040516100ce969594939291906109a4565b600080546101cd906109f1565b80601f01602080910402602001604051908101604052809291908181526020018280546101f9906109f1565b80156102465780601f1061021b57610100808354040283529160200191610246565b820191906000526020600020905b81548152906001019060200180831161022957829003601f168201915b505050505081565b600554610100900460ff161561027f5760405162461bcd60e51b815260040161027690610a2b565b60405180910390fd5b60055460ff16156102ca5760405162461bcd60e51b815260206004820152601560248201527411dbd85b081a185cc81899595b881c995858da1959605a1b6044820152606401610276565b33600090815260066020526040902054806103275760405162461bcd60e51b815260206004820152601960248201527f4e6f20636f6e747269627574696f6e20746f20726566756e64000000000000006044820152606401610276565b3360009081526006602052604081208190556004805483929061034b908490610a71565b909155505060035460405163a9059cbb60e01b8152336004820152602481018390526001600160a01b039091169063a9059cbb906044016020604051808303816000875af11580156103a1573d6000803e3d6000fd5b505050506040513d601f19601f820116820180604052508101906103c59190610a8a565b5060405181815233907fd7dee2702d63ad89917b6a4da9981c90c4d24f8c2bdfd64c604ecae57d8d06519060200160405180910390a250565b600180546101cd906109f1565b600554610100900460ff16156104335760405162461bcd60e51b815260040161027690610a2b565b600081116104835760405162461bcd60e51b815260206004820152601d60248201527f416d6f756e74206d7573742062652067726561746572207468616e20300000006044820152606401610276565b6003546040516370a0823160e01b815233600482015282916001600160a01b0316906370a0823190602401602060405180830381865afa1580156104cb573d6000803e3d6000fd5b505050506040513d601f19601f820116820180604052508101906104ef9190610aac565b101561053d5760405162461bcd60e51b815260206004820152601a60248201527f496e73756666696369656e7420746f6b656e2062616c616e63650000000000006044820152606401610276565b600354604051636eb1769f60e11b815233600482015230602482015282916001600160a01b03169063dd62ed3e90604401602060405180830381865afa15801561058b573d6000803e3d6000fd5b505050506040513d601f19601f820116820180604052508101906105af9190610aac565b10156105fd5760405162461bcd60e51b815260206004820152601760248201527f416c6c6f77616e6365206973206e6f7420656e6f7567680000000000000000006044820152606401610276565b336000908152600660205260408120805483929061061c908490610ac5565b9250508190555080600460008282546106359190610ac5565b90915550506003546040516323b872dd60e01b8152336004820152306024820152604481018390526001600160a01b03909116906323b872dd906064016020604051808303816000875af1158015610691573d6000803e3d6000fd5b505050506040513d601f19601f820116820180604052508101906106b59190610a8a565b5060405181815233907f5af8184bef8e4b45eb9f6ed7734d04da38ced226495548f46e0c8ff8d7d9a5249060200160405180910390a260025460045410158015610702575060055460ff16155b1561073e576005805460ff191660011790556040517ff30bb8af8a065d12f4e39fe65ccc82ca742ae3efb1f64e78630fe4796d92c5fe90600090a15b50565b600554610100900460ff16156107695760405162461bcd60e51b815260040161027690610a2b565b6005805461ff0019166101001790556040517f8b509b2a65011de6c4d09c12fda946ecbd2f0afc0e0d4dc7690d55e87477bbfe90600090a1565b60608060008060008060006001600254600454600560009054906101000a900460ff16600560019054906101000a900460ff168580546107e2906109f1565b80601f016020809104026020016040519081016040528092919081815260200182805461080e906109f1565b801561085b5780601f106108305761010080835404028352916020019161085b565b820191906000526020600020905b81548152906001019060200180831161083e57829003601f168201915b5050505050955084805461086e906109f1565b80601f016020809104026020016040519081016040528092919081815260200182805461089a906109f1565b80156108e75780601f106108bc576101008083540402835291602001916108e7565b820191906000526020600020905b8154815290600101906020018083116108ca57829003601f168201915b50505050509450955095509550955095509550909192939495565b6000815180845260005b818110156109285760208185018101518683018201520161090c565b506000602082860101526020601f19601f83011685010191505092915050565b60208152600061095b6020830184610902565b9392505050565b60006020828403121561097457600080fd5b81356001600160a01b038116811461095b57600080fd5b60006020828403121561099d57600080fd5b5035919050565b60c0815260006109b760c0830189610902565b82810360208401526109c98189610902565b6040840197909752505060608101939093529015156080830152151560a09091015292915050565b600181811c90821680610a0557607f821691505b602082108103610a2557634e487b7160e01b600052602260045260246000fd5b50919050565b60208082526016908201527510dc9bddd9199d5b991a5b99c81a5cc818db1bdcd95960521b604082015260600190565b634e487b7160e01b600052601160045260246000fd5b81810381811115610a8457610a84610a5b565b92915050565b600060208284031215610a9c57600080fd5b8151801515811461095b57600080fd5b600060208284031215610abe57600080fd5b5051919050565b80820180821115610a8457610a84610a5b56fea264697066735822122084484e6742a39e9e299ffce7d86fdd450471cf1445f9190a574ec70e787ed23164736f6c63430008180033",
  "linkReferences": {},
  "deployedLinkReferences": {}
}