{
  "_format": "hh-sol-artifact-1",
  "contractName": "Crowdfunding",
  "sourceName": "contracts/Crowdfunding.sol",
  "abi": [
    {
      "inputs": [
        {
          "internalType": "address",
          "name": "_tokenAddress",
          "type": "address"
        }
      ],
      "stateMutability": "nonpayable",
      "type": "constructor"
    },
    {
      "anonymous": false,
      "inputs": [],
      "name": "CrowdfundingClosed",
      "type": "event"
    },
    {
      "anonymous": false,
      "inputs": [
        {
          "indexed": true,
          "internalType": "address",
          "name": "user",
          "type": "address"
        },
        {
          "indexed": false,
          "internalType": "uint256",
          "name": "amount",
          "type": "uint256"
        }
      ],
      "name": "Funded",
      "type": "event"
    },
    {
      "anonymous": false,
      "inputs": [],
      "name": "GoalReached",
      "type": "event"
    },
    {
      "anonymous": false,
      "inputs": [
        {
          "indexed": true,
          "internalType": "address",
          "name": "user",
          "type": "address"
        },
        {
          "indexed": false,
          "internalType": "uint256",
          "name": "amount",
          "type": "uint256"
        }
      ],
      "name": "Refunded",
      "type": "event"
    },
    {
      "inputs": [],
      "name": "closeCrowdfunding",
      "outputs": [],
      "stateMutability": "nonpayable",
      "type": "function"
    },
    {
      "inputs": [
        {
          "internalType": "address",
          "name": "",
          "type": "address"
        }
      ],
      "name": "contributions",
      "outputs": [
        {
          "internalType": "uint256",
          "name": "",
          "type": "uint256"
        }
      ],
      "stateMutability": "view",
      "type": "function"
    },
    {
      "inputs": [
        {
          "internalType": "uint256",
          "name": "amount",
          "type": "uint256"
        }
      ],
      "name": "fund",
      "outputs": [],
      "stateMutability": "nonpayable",
      "type": "function"
    },
    {
      "inputs": [],
      "name": "getDetails",
      "outputs": [
        {
          "internalType": "string",
          "name": "",
          "type": "string"
        },
        {
          "internalType": "uint256",
          "name": "",
          "type": "uint256"
        },
        {
          "internalType": "uint256",
          "name": "",
          "type": "uint256"
        },
        {
          "internalType": "bool",
          "name": "",
          "type": "bool"
        },
        {
          "internalType": "bool",
          "name": "",
          "type": "bool"
        }
      ],
      "stateMutability": "view",
      "type": "function"
    },
    {
      "inputs": [],
      "name": "goal",
      "outputs": [
        {
          "internalType": "uint256",
          "name": "",
          "type": "uint256"
        }
      ],
      "stateMutability": "view",
      "type": "function"
    },
    {
      "inputs": [],
      "name": "isClosed",
      "outputs": [
        {
          "internalType": "bool",
          "name": "",
          "type": "bool"
        }
      ],
      "stateMutability": "view",
      "type": "function"
    },
    {
      "inputs": [],
      "name": "isGoalReached",
      "outputs": [
        {
          "internalType": "bool",
          "name": "",
          "type": "bool"
        }
      ],
      "stateMutability": "view",
      "type": "function"
    },
    {
      "inputs": [],
      "name": "name",
      "outputs": [
        {
          "internalType": "string",
          "name": "",
          "type": "string"
        }
      ],
      "stateMutability": "view",
      "type": "function"
    },
    {
      "inputs": [],
      "name": "refund",
      "outputs": [],
      "stateMutability": "nonpayable",
      "type": "function"
    },
    {
      "inputs": [],
      "name": "totalFunds",
      "outputs": [
        {
          "internalType": "uint256",
          "name": "",
          "type": "uint256"
        }
      ],
      "stateMutability": "view",
      "type": "function"
    }
  ],
  "bytecode": "0x60c0604052600a608090815269416c6f612047616d657360b01b60a052600090610029908261012b565b5069054b40b1f852bda0000060015534801561004457600080fd5b5060405162000b7338038062000b73833981016040819052610065916101ea565b600280546001600160a01b0319166001600160a01b039290921691909117905561021a565b634e487b7160e01b600052604160045260246000fd5b600181811c908216806100b457607f821691505b6020821081036100d457634e487b7160e01b600052602260045260246000fd5b50919050565b601f821115610126576000816000526020600020601f850160051c810160208610156101035750805b601f850160051c820191505b818110156101225782815560010161010f565b5050505b505050565b81516001600160401b038111156101445761014461008a565b6101588161015284546100a0565b846100da565b602080601f83116001811461018d57600084156101755750858301515b600019600386901b1c1916600185901b178555610122565b600085815260208120601f198616915b828110156101bc5788860151825594840194600190910190840161019d565b50858210156101da5787850151600019600388901b60f8161c191681555b5050505050600190811b01905550565b6000602082840312156101fc57600080fd5b81516001600160a01b038116811461021357600080fd5b9392505050565b610949806200022a6000396000f3fe608060405234801561001057600080fd5b506004361061009e5760003560e01c8063c2b6b58c11610066578063c2b6b58c1461010b578063ca1d209d1461012d578063d3eb6f6114610140578063fa013ad81461014d578063fbbf93a01461015557600080fd5b806306fdde03146100a357806340193883146100c157806342e94c90146100d8578063590e1ae3146100f8578063968ed60014610102575b600080fd5b6100ab61016e565b6040516100b89190610797565b60405180910390f35b6100ca60015481565b6040519081526020016100b8565b6100ca6100e63660046107b1565b60056020526000908152604090205481565b6101006101fc565b005b6100ca60035481565b60045461011d90610100900460ff1681565b60405190151581526020016100b8565b61010061013b3660046107da565b6103ac565b60045461011d9060ff1681565b610100610622565b61015d610684565b6040516100b89594939291906107f3565b6000805461017b9061082c565b80601f01602080910402602001604051908101604052809291908181526020018280546101a79061082c565b80156101f45780601f106101c9576101008083540402835291602001916101f4565b820191906000526020600020905b8154815290600101906020018083116101d757829003601f168201915b505050505081565b600454610100900460ff161561022d5760405162461bcd60e51b815260040161022490610866565b60405180910390fd5b60045460ff16156102785760405162461bcd60e51b815260206004820152601560248201527411dbd85b081a185cc81899595b881c995858da1959605a1b6044820152606401610224565b33600090815260056020526040902054806102d55760405162461bcd60e51b815260206004820152601960248201527f4e6f20636f6e747269627574696f6e20746f20726566756e64000000000000006044820152606401610224565b336000908152600560205260408120819055600380548392906102f99084906108ac565b909155505060025460405163a9059cbb60e01b8152336004820152602481018390526001600160a01b039091169063a9059cbb906044016020604051808303816000875af115801561034f573d6000803e3d6000fd5b505050506040513d601f19601f8201168201806040525081019061037391906108c5565b5060405181815233907fd7dee2702d63ad89917b6a4da9981c90c4d24f8c2bdfd64c604ecae57d8d06519060200160405180910390a250565b600454610100900460ff16156103d45760405162461bcd60e51b815260040161022490610866565b600081116104245760405162461bcd60e51b815260206004820152601d60248201527f416d6f756e74206d7573742062652067726561746572207468616e20300000006044820152606401610224565b6002546040516370a0823160e01b815233600482015282916001600160a01b0316906370a0823190602401602060405180830381865afa15801561046c573d6000803e3d6000fd5b505050506040513d601f19601f8201168201806040525081019061049091906108e7565b10156104de5760405162461bcd60e51b815260206004820152601a60248201527f496e73756666696369656e7420746f6b656e2062616c616e63650000000000006044820152606401610224565b33600090815260056020526040812080548392906104fd908490610900565b9250508190555080600360008282546105169190610900565b90915550506002546040516323b872dd60e01b8152336004820152306024820152604481018390526001600160a01b03909116906323b872dd906064016020604051808303816000875af1158015610572573d6000803e3d6000fd5b505050506040513d601f19601f8201168201806040525081019061059691906108c5565b5060405181815233907f5af8184bef8e4b45eb9f6ed7734d04da38ced226495548f46e0c8ff8d7d9a5249060200160405180910390a2600154600354101580156105e3575060045460ff16155b1561061f576004805460ff191660011790556040517ff30bb8af8a065d12f4e39fe65ccc82ca742ae3efb1f64e78630fe4796d92c5fe90600090a15b50565b600454610100900460ff161561064a5760405162461bcd60e51b815260040161022490610866565b6004805461ff0019166101001790556040517f8b509b2a65011de6c4d09c12fda946ecbd2f0afc0e0d4dc7690d55e87477bbfe90600090a1565b60606000806000806000600154600354600460009054906101000a900460ff16600460019054906101000a900460ff168480546106c09061082c565b80601f01602080910402602001604051908101604052809291908181526020018280546106ec9061082c565b80156107395780601f1061070e57610100808354040283529160200191610739565b820191906000526020600020905b81548152906001019060200180831161071c57829003601f168201915b50505050509450945094509450945094509091929394565b6000815180845260005b818110156107775760208185018101518683018201520161075b565b506000602082860101526020601f19601f83011685010191505092915050565b6020815260006107aa6020830184610751565b9392505050565b6000602082840312156107c357600080fd5b81356001600160a01b03811681146107aa57600080fd5b6000602082840312156107ec57600080fd5b5035919050565b60a08152600061080660a0830188610751565b602083019690965250604081019390935290151560608301521515608090910152919050565b600181811c9082168061084057607f821691505b60208210810361086057634e487b7160e01b600052602260045260246000fd5b50919050565b60208082526016908201527510dc9bddd9199d5b991a5b99c81a5cc818db1bdcd95960521b604082015260600190565b634e487b7160e01b600052601160045260246000fd5b818103818111156108bf576108bf610896565b92915050565b6000602082840312156108d757600080fd5b815180151581146107aa57600080fd5b6000602082840312156108f957600080fd5b5051919050565b808201808211156108bf576108bf61089656fea2646970667358221220dd479f5e1443f1de75c3c9339422f8e01e0607e5e7e0a920fb0424ae713c717564736f6c63430008180033",
  "linkReferences": {},
  "deployedLinkReferences": {}
}